:1002200031400003B0122C021042000C0A120B12D3
:100230000812B240805A2001C2432100C243290063
:10024000C2432600C2432E00F2432200F240FB00CC
:100250002A00C2432500C2432D00C2432400C243EA
:100260002C0008433890030011341B430A433A9290
:100270000B34C24A2100C24B29000B5B3C4060EAB0
:10028000B01294021A53F33F1853EC3F38413B41EC
:100290003A4130410D430D9C042C034303431D534D
:0402A000FA3F3041B0
:00000001FF
